{
  "contractName": "EtherMatchToken",
  "abi": [
    {
      "constant": true,
      "inputs": [],
      "name": "totalSupply",
      "outputs": [
        {
          "name": "",
          "type": "uint256"
        }
      ],
      "payable": false,
      "stateMutability": "view",
      "type": "function"
    },
    {
      "inputs": [],
      "payable": false,
      "stateMutability": "nonpayable",
      "type": "constructor"
    }
  ],
  "bytecode": "0x608060405234801561001057600080fd5b506335a4e900600081905550609e8061002a6000396000f300608060405260043610603f576000357c0100000000000000000000000000000000000000000000000000000000900463ffffffff16806318160ddd146044575b600080fd5b348015604f57600080fd5b506056606c565b6040518082815260200191505060405180910390f35b600054815600a165627a7a72305820e4ae3a3d527e859a6ba80972bc01c4fe7a32120b4364d42b3233c5dc952c93b80029",
  "source": "pragma solidity ^0.4.17;\n\ncontract EtherMatchToken {\n\t//Variables\n\tuint256 public totalSupply;\n\t//Constructor\n\tfunction EtherMatchToken () public {\n\t\ttotalSupply = 900000000;\n\t}\n\t//Set number of tokens\n\t//Read total number of tokens\n}",
  "sourcePath": "/home/taylor/Desktop/Token/contracts/EtherMatchToken.sol",
  "compiler": {
    "name": "solc",
    "version": "0.4.23+commit.124ca40d.Emscripten.clang"
  },
  "schemaVersion": "2.0.0",
  "updatedAt": "2018-05-03T02:49:51.349Z"
}